:020000040000FA
:04000000FEEFFFF020
:020000040001F9
:10FE3400120012000C122100900E03011A6F540ECE
:10FE44001B6F1200000EBE6E000E0401006F000E48
:10FE5400C66E800EBE6E1200000E096E000E0A6E93
:10FE6400000E0B6E000E0C6E000E056E000E066E7C
:10FE7400000E076E000E086E120003011A9F121C7A
:10FE8400166E131C176E16C514F51750156E610007
:10FE940050F418F3610054F419F3B1507F0BB16EB0
:10FEA4001A5180091A6F1200380EF66EFE0EF76EA4
:10FEB400010EF86E01EE19F110EE04F00900F5C41C
:10FEC400EEF4E550E150FAE101EE01F1110EEE6AB3
:10FED400E806FDE100016FEFFFF0048E1AECFFF07D
:10FEE4002EECFFF024ECFFF01EECFFF08FECFFF0A3
:10FEF400BE9E1BECFFF0030E136EE80E126E3FEC79
:10FF0400FFF0B1AE88EFFFF08AEFFFF083EFFFF070
:10FF1400BE8E78EFFFF0FEEFFFF019C513F51AC59A
:10FF240014F51BC515F51CC516F56100F8F212F59C
:10FF3400800E12161250176E186A0F4A102A640E99
:10FF44000F181010D8A4A9EFFFF0ABEFFFF0BEEF2D
:10FF5400FFF00D500E10D8A4B2EFFFF0B4EFFFF095
:10FF6400B9EFFFF013501710BE6EFDEFFFF0145001
:10FF74001710BE6EFDEFFFF0C80E0F181010D8A4B6
:10FF8400C6EFFFF0C8EFFFF0D3EFFFF00D500E10F7
:10FF9400D8A4CFEFFFF0D1EFFFF0B4EFFFF0B9EF4B
:10FFA400FFF02C0E0F1806E11004D8A4DCEFFFF0CC
:10FFB400DEEFFFF0FDEFFFF00D500E10D8A4E5EFDB
:10FFC400FFF0E7EFFFF0F4EFFFF015501710BE6EEF
:10FFD400000E0E6E010E0D6E000E106E000E0F6EF2
:10FFE400FDEFFFF016501710BE6E000E0E6E000EE1
:0CFFF4000D6EEEEFFFF0120056EFFFF074
:020000040020DA
:10000000FF0FFF0FFF0FFF0FFF0FFF0FFF0FFF0F80
:10001000FF0FFF0FFF0FFF0FFF0FFF0FFF0FFF0F70
:020000040030CA
:0A0000008CFEFFFC9FFFFFFFFFFFD7
:00000001FF
