:020000040000FA
:04000000FEEFFFF020
:020000040001F9
:10FED6001200120001EE01F10E0EEE6AE806FDE1D7
:10FEE600000197EFFFF0000EBE6E000ECF6E000E03
:10FEF6000401006F000E086F000EC66E300EC76E4E
:10FF0600800EBE6E1200000E096E000E0A6E000E06
:10FF16000B6E000E0C6E000E056E000E066E000EC9
:10FF2600076E000E086E1200048E6BECFFF086EC76
:10FF3600FFF076ECFFF0A8ECFFF0CBECFFF06CECFA
:10FF4600FFF0A0EFFFF0FEEFFFF0000E126E000EC6
:10FF5600116E3F0EBE1A150E106E4B0E0F6EBE0EB4
:10FF6600E82EFED70F2EFCD7102EFAD700D0114A56
:10FF7600122A12BEC8EFFFF0125009E10C0E115CF6
:10FF8600D8A0C8EFFFF0CAEFFFF0ACEFFFF0120009
:10FF9600BF0EBE18D8A4D2EFFFF0D4EFFFF0D6EF15
:10FFA600FFF0800EBE6ECFAADBEFFFF0DDEFFFF0B5
:10FFB600F4EFFFF00D50D8A4E3EFFFF0E5EFFFF00C
:10FFC600F4EFFFF0BE2A110E106E3C0E0F6ECB0E34
:10FFD600E82EFED70F2EFCD7102EFAD700F0010E12
:10FFE6000D6ECFBAF9EFFFF0FBEFFFF0FDEFFFF07C
:0AFFF600000E0D6E12006DEFFFF01B
:020000040020DA
:10000000FF0FFF0FFF0FFF0FFF0FFF0FFF0FFF0F80
:10001000FF0FFF0FFF0FFF0FFF0FFF0FFF0FFF0F70
:020000040030CA
:0A0000008CFEFFFC9FFFFFFFFFFFD7
:00000001FF
