:020000040000FA
:0400000081EF00F09C
:1000080045012D012D012D0140002D0140002D013C
:100018002D012D012D012D012D012D012D012D0168
:100028002D014000400040002D012D012D012D0122
:100038002D012D012D013E01E2002D012D012D0183
:100048002D012D012D012D01400040002D012D0114
:100058002D012D012D0140002D012D012D012D0116
:100068002D012D012D012D012D012D012D012D0118
:100078002D012D012D012D0140002D012D012D01F6
:100088002D012D012D012D012D012D012D012D01F8
:100098002D012D012D012D0140002D0140004000B2
:1000A8002D012D012D012D012D012D012D012D01D8
:1000B8002D012D012D012D012D012D012D012D01C8
:1000C8002D012D012D012D012D012D012D012D01B8
:1000D8002D012D012D012D012D012D012D012D01A8
:1000E80040002D012D012D0140004000400040003E
:1000F8002D012D012D012D01FF0052EF01F080830C
:1001080086898C8F9295989B9EA2A5A7AAADB0B31D
:10011800B6B9BCBEC1C4C6C9CBCED0D3D5D7DADC3C
:10012800DEE0E2E4E6E8EAEBEDEEF0F1F3F4F5F612
:10013800F8F9FAFAFBFCFDFDFEFEFEFFFFFFFFFFEC
:10014800FFFFFEFEFEFDFDFCFBFAFAF9F8F6F5F4FA
:10015800F3F1F0EEEDEBEAE8E6E4E2E0DEDCDAD734
:10016800D5D3D0CECBC9C6C4C1BEBCB9B6B3B0AD69
:10017800AAA7A5A29E9B9895928F8C898683807C3E
:10018800797673706D6A6764615D5A5855524F4C41
:10019800494643413E3B393634312F2C2A28252302
:1001A800211F1D1B1917151412110F0E0C0B0A090C
:1001B8000706050504030202010101000000000012
:1001C80000000101010202030405050607090A0BE4
:1001D8000C0E0F1112141517191B1D1F212325288A
:1001E8002A2C2F313436393B3E414346494C4F5235
:1001F80055585A5D6164676A6D707376797C21EE33
:1002080001F111EE60F1370EDBC4E3F4E806FCE21D
:1002180021EE00F211EE98F1370EDBC4E3F4E806A4
:10022800FCE20501D251020D600EF324D96E050ED1
:10023800F420DA6E610078F34AF5610074F34BF547
:10024800010E4C6E99EC01F00501D251020D980E89
:10025800F324D96E050EF420DA6ED051DE1807E1CA
:10026800D151DE18D8A43BEF01F03DEF01F04FEF7C
:1002780001F01B0ED219D8A444EF01F046EF01F0AB
:100288004AEF01F0000ED26F4BEF01F0D22B000EB7
:10029800D16F000ED06FD04BD12B1200060EF66E28
:1002A800010EF76E000EF86E01EE00F310EE00F18D
:1002B8000900F5C4EEF4E550E150FAE1E250F8E146
:1002C800FA0EF66E030EF76E000EF86E01EE00F2EF
:1002D80010EE38F00900F5C4EEF4E550E150FAE10B
:1002E800C20EF66E030EF76E000EF86E01EE01F107
:1002F80010EE38F00900F5C4EEF4E550E150FAE1EB
:100308000501D36BD26BD16BD06B01EE39F1100EB6
:10031800EE6AE806FDE10401080E5D6F000E5E6FEF
:10032800000E5F6F000133EF02F003011E91800E93
:100338004B5CD8A0A2EF01F0A4EF01F0A7EF01F009
:100348007F0E4B6E4A684A1C4D6E4B1C4E6E4E50CB
:10035800476E4DC546F561001CF51DF3610018F5A3
:100368001CF348904C50D8B4BCEF01F0BEEF01F03C
:0E037800BFEF01F04880B198A1881E811200ED
:1003880061001CF51DF3610018F51CF3000E4524EF
:10039800D96EDA6A070EDA22DF5000017D6F040E8B
:1003A8004526B19848B0DBEF01F0DDEF01F0E0EF52
:1003B80001F0A19803011E9111003C0000003C00CF
:1003C800000028000000280000002400000024008D
:1003D8000000280000002D0000002D0000002F0064
:1003E80000002F00000035000000350000003C0030
:1003F8000000000232000002320000023200000257
:100408003200000232000002320000043200000212
:100418003200000232000002320000023200000204
:100428003200000232000004C409000E416E000EC2
:10043800426E000E436E000E446E000E3D6E000EBE
:100448003E6E000E3F6E000E406E7D0E0301236F60
:10045800010E266FB196F00E246FA18612000501D9
:10046800D38F8CEC02F067EC02F086EC02F019EC0A
:1004780002F04BEC02F00501D39F03EC01F0BE9EA5
:1004880072EC02F0BE8E41EF02F081EF00F0C00E78
:10049800BE16900E03011A6F540E1B6F000E1F6FCD
:0A04A800010E216F310E1E6F1200CD
:1004B400610060F349F5010E3926000E3A223B2211
:1004C4003C22610024F5D8F41100000E0401006FF1
:1004D400000EC66EA00E00017F6F000E7D6F12002D
:1004E4000501D38DD3BD79EF02F07BEF02F074EFF9
:1004F40002F01200B1960501D39D010E4126000EB3
:100504004222432244221100D68AD68ED68C12006F
:06051400AE901100120080
:020000040020DA
:10000000FF0FFF0FFF0FFF0FFF0FFF0FFF0FFF0F80
:10001000FF0FFF0FFF0FFF0FFF0FFF0FFF0FFF0F70
:020000040030CA
:0A0000008CFEFFFC9FFFFFFFFFFFD7
:00000001FF
