:020000040000FA
:04000000FEEFFFF020
:020000040001F9
:10FEF8001200120001EE01F10D0EEE6AE806FDE1B6
:10FF08000001A2EFFFF0000EBE6E000E0401006FAC
:10FF1800000EC66E800EBE6E1200000E096E000E38
:10FF28000A6E000E0B6E000E0C6E000E056E000EB3
:10FF3800066E000E076E000E086E1200048E7CEC32
:10FF4800FFF091ECFFF087ECFFF0B3ECFFF0D6EC9C
:10FF5800FFF07DECFFF0ABEFFFF0FEEFFFF0000EDF
:10FF6800116E000E106E3F0EBE1A150E0F6E4B0E60
:10FF78000E6EBE0EE82EFED70E2EFCD70F2EFAD729
:10FF880000D0104A112A11BED3EFFFF0115009E139
:10FF98000C0E105CD8A0D3EFFFF0D5EFFFF0B7EF51
:10FFA800FFF01200800EBE6EF5EFFFF0BE2A200EA5
:10FFB8000E6EA10E0F6E070E106E000E116EEAEF98
:10FFC800FFF00E06000E0F5A105A115A0E500F105D
:10FFD80010101110D8A4F3EFFFF0F5EFFFF0E5EFE4
:10FFE800FFF0BE0EBE64FBEFFFF0FDEFFFF0DAEFAF
:08FFF800FFF012007EEFFFF0A4
:020000040020DA
:10000000FF0FFF0FFF0FFF0FFF0FFF0FFF0FFF0F80
:10001000FF0FFF0FFF0FFF0FFF0FFF0FFF0FFF0F70
:020000040030CA
:0A0000008CFEFFFC9FFFFFFFFFFFD7
:00000001FF
